:020000041000EA
:1000000000B5324B212058609868022188439860DF
:10001000D860186158612E4B002199600221596106
:100020000121F02299502B49196001219960352056
:1000300000F044F80222904214D00621196600F024
:1000400034F8196E01211966002018661A6600F04E
:100050002CF8196E196E196E052000F02FF8012189
:100060000842F9D1002199601B49196000215960AB
:100070001A491B48016001219960EB211966A021F2
:10008000196600F012F800219960164914480160C1
:100090000121996001BC002800D000471248134993
:1000A000086003C880F30888084703B5996A0420EC
:1000B0000142FBD001200142F8D103BD02B5186610
:1000C0001866FFF7F2FF186E186E02BD00000240BE
:1000D000000000180000070000035F00212200005C
:1000E000F4000018222000A00001001008ED00E03C
:1000F00000000000000000000000000074B24E7A12
:1001000000200420F7010010CB010010CD010010E9
:10011000C9010010C9010010C9010010C901001077
:10012000C9010010C9010010C9010010CF01001061
:10013000C9010010C9010010D1010010D301001045
:10014000C1010010C1010010C1010010C101001067
:10015000C1010010C1010010C1010010C101001057
:10016000C1010010C1010010C1010010C101001047
:10017000C1010010C1010010C1010010C101001037
:10018000C1010010C1010010C1010010C101001027
:10019000C1010010C1010010C1010010C101001017
:1001A000C1010010C1010010C1010010C101001007
:1001B000C1010010C1010010C1010010C1010010F7
:1001C000EFF30580103800BE00BE00BE00BE00BECA
:1001D00000BE00BEF2EB8871B4770610E07706101F
:1001E0003802001090A31AE71E481F49086006C88D
:1001F00081F3088810471D480068002801D019487D
:10020000F3E70DA40ECC002902D000F012F8F9E7B4
:100210001749184A002000E001C19142FCD116495B
:100220008847164988471649884700BEFDE701C937
:1002300001C29A42FBD37047E0770610C00000204D
:10024000D80F0020F88606100000042000000420CB
:10025000F8860610001004200010042000000000A2
:10026000704700000000000008ED00E0000000D032
:10027000D80F00202C62002091500010DD020010E9
:1002800089500010F8B5C04606480749091A8B1076
:10029000C90FC91810B5491003D0044B002B00D06A
:1002A000984710BDD80F0020D80F00200000000094
:1002B000054B10B5002B03D00449054800E000BFF2
:1002C000FFF7E2FF10BDC04600000000CC5B00203D
:1002D0009C63021010B500F041FB10BD10B505F095
:1002E00001F8054805F0B2FA00F008F801200021F5
:1002F000404206F057FEF9E7D502001000B583B082
:1003000002236A4601A90020938006F0B5FB03B0E2
:1003100000BDC046F8B54746CE462C4E80B537786E
:100320008046894615001C00002F07D049464046EC
:1003300007F06CFBC0BCB946B046F8BD07F050FBF7
:10034000012836D0002DF1D0032CEFD903212B004A
:10035000491B04E00133CA1892B29442E6D91A78D4
:10036000052AF7D15A78012AF4D198780928F1D1D1
:10037000D8780628EED132704246154B1A704A469C
:10038000144B1A70002303E001339AB2944203D94C
:10039000EA5C852AF8D101270F4B082200210F487B
:1003A0001F7003F089FA082200210D4803F084FA37
:1003B000BCE74246064B30701A704A46054B1A702D
:1003C000002DE9D0002CDDD1E6E7C0460C6200200C
:1003D0000D6200200F6200200E620020B41D00207C
:1003E000A05B002010B5BFF35F8F0822014903F026
:1003F00069FA10BDB41D002010B508220021034881
:1004000003F05AFABFF35F8F10BDC046A05B002017
:1004100070B5134C2378002B04D0124B1D001B78B1
:10042000834200D070BD104B1E001B788B42F9D167
:1004300008210E4800F050FA00230D4A00211370E5
:100440000C48082223702B70337003F035FA082211
:100450000021094803F030FABFF35F8FE2E7C0469E
:100460000C6200200D6200200F620020A0630210C9
:100470000E620020B41D0020A05B0020F0B5040037
:1004800025480D00007817001E0083B0002803D017
:10049000224B1B78A34205D02900200007F0B6FAB2
:1004A00003B0F0BD1E4B1B788B42F5D10822002112
:1004B000684603F001FA1B4B1B78002B21D1002E5C
:1004C000EAD0321C082E00D908223900684692B2C0
:1004D00003F0F8F96A46144B03CA03C3BFF35F8FF6
:1004E000124B009A1E001B689A4210D008216846E1
:1004F00000F0F2F90028CFD033006A4603CA03C3E4
:10050000CAE7012EC8D9731E01379EB2D9E7019AF6
:1005100073689A42EAD1BFE70C6200200D620020A6
:100520000F6200200E620020B41D0020A05B00209E
:10053000124B134A198810B50400914215D0114A84
:100540001278002A11D0104A1278002A09D10F4AD5
:100550001278002A05D10E4A11780E4A127891427B
:1005600003D0188880B200F0F3FD012120001DF0B7
:100570004BFF20001DF054FF10BDC046A008002016
:10058000FFFF00000A6200201862002014620020B1
:100590001562002016620020F0B5DE4657464E4632
:1005A0004546E0B583B004280DD11378602B00D107
:1005B00072E00FD8052B00D17DE03E2B03D193785C
:1005C000012B00D199E003B0F0BCBB46B246A9466E
:1005D000A046F0BDC82B55D0F12BF4D19378012B58
:1005E00000D1B4E0052BEED15379012BEBD10321DF
:1005F000100094791DF066FFA54B1E001880BFF314
:100600005F8F23005A1E9341A24A002113701700E6
:10061000A14A137000239046A04A1370A04B914644
:10062000180008221D0003F047F90021002C00D01B
:100630001DE101230020594007F076FD3B78002B97
:1006400000D1F0E097493288974892B204F01CFF3D
:100650003288964B9A42B6D03B78002BB3D04346B3
:100660001B78002B09D14B461B78002B05D1904BF2
:100670001A78904B1B789A42A5D0308880B200F04F
:1006800067FDA0E7022110001DF01CFF15F02CFCF7
:10069000894804F077FE96E79378022B00D092E722
:1006A000012022F091FC0121002007F03DFD83484C
:1006B00004F068FE87E70122754B52421A80BFF3AF
:1006C0005F8F0022734B00211A70734B74481A70AD
:1006D000724B1A70082203F0EFF80022754B0120CC
:1006E0001A70734B1A7022F06FFC0121002007F082
:1006F0001BFD734804F046FE65E7D3781C1E00D04E
:1007000061E7042110001DF0DDFE614D2880BFF37C
:100710005F8F604B08221C705F4B00211C705F4B89
:100720005F481C7003F0C8F8624B0C221C70604BD1
:1007300006211C70C8232888009380B2002322F071
:10074000A1FB29885F4889B204F09EFE3BE7504B2D
:10075000564A1E001B88934200D134E74D4B1F00C0
:100760001B78002B00D12EE74B4B98461B78002BB3
:100770003CD14A4B99461B78002B5BD14C4C4D4BDE
:1007800022789A461B78A3469A424ED021784E4A48
:100790004E4BC9005B18110021CB21C1BFF35F8F05
:1007A0003F23217801310B40237030880823012139
:1007B00080B200F0DDFC32883C4B9A4200D102E767
:1007C0003B78002B00D1FEE643461B78002B00D07F
:1007D00053E74B461B78002B00D04EE75B461A7858
:1007E00053461B789A4200D047E7ECE60023454683
:1007F0003088374A2B700121083380B200F0B8FCF2
:1008000033882A4A934200D1DDE63B78002B00D1A1
:10081000D9E62B78002B00D02FE7204B1B78002B3C
:1008200000D02AE723E72B490DE732881F4B9A4275
:10083000CFD1C8E600234D463088194A2B700121DC
:10084000083380B200F094FC3288184B9A4200D1F1
:10085000B9E63B78002B00D1B5E643461B78002B68
:1008600000D00AE72B78002B00D006E7FFE6FFF761
:10087000C3FD2800FFF7B6FD2B68002B02D16B6883
:10088000002B00D001234A4639781370D1E6C046C8
:10089000A00800200A6200201862002014620020D4
:1008A0000C5C0020A863021038640210FFFF0000F7
:1008B000156200201662002018640210BC6302104A
:1008C000F8630210D86302101C5E00201C5C00203C
:1008D000E8A30210B0630210F0B5C6461A4B0E0032
:1008E0001A881A4B00B59A4221D03F24184D2B7814
:1008F00001331C40174B1B78A34218D00B1C08294E
:1009000013D8DAB22B781449DB00CB1888460100E3
:100910001800170002F0D6FF072E0AD9BFF35F8F29
:1009200001202C7080BCB846F0BD0823E9E7002008
:10093000F8E7082228780021C000C019D21B4044E3
:1009400002F0BAFFEAE7C046A0080020FFFF00005F
:1009500016620020156200201C5C002010B586B0D5
:1009600007F0F2FB23F0EEF815F04CF9032015F038
:1009700043F9012015F03AF90022002121480FF037
:1009800075FE642000F060FC00F002FD1E4B04AC1C
:1009900000932F22012300201C4900F069FA06224F
:1009A0000021200002F088FF002302930733002279
:1009B0000193009400233021302015F0C5FF144925
:1009C000192022F0AFFA134C134844601EF070FF58
:1009D0001248446015F002F9200000F0B3FB104CFF
:1009E000104920001DF0E4FC012120001DF00CFD49
:1009F00020001DF015FD012022F0DCF81DF020FD87
:100A000006B010BD3CA40210005C00200CA4021033
:100A1000F0A3021099050010AC2A0020745F00209A
:100A2000245E00203105001010B50B4C82B0236805
:100A3000002B0FD06A46094B0321138001239370CA
:100A400082B268461DF054FD05236A460021042049
:100A50002468A04702B010BDE45B0020F103000051
:100A6000F0B5C64600B5C2B01E0048AB1D88F123E4
:100A7000884601AC170023700200E73B20000321E9
:100A8000A3701DF035FD4046FA2160712800A77162
:100A90001DF0E4FDFF22C5B23100024003A8E5715C
:100AA00002F010FF064AAB1D63701568002122009A
:100AB00004200233A84742B080BCB846F0BDC0460F
:100AC000E45B0020F0B5C64600B582B01E006B4660
:100AD000544C1D8CE389804617008B4200D171E095
:100AE00063898B4200D17DE0638A8B4256D0238B91
:100AF0008B4200D185E0238D8B4234D0238AE28A59
:100B0000A08B8B4257D08A4250D0884234D02523C4
:100B1000E25C013BE35CD2182623E35CD218D2B23C
:100B2000002A5DD0236A9C461C00002304E00133A8
:100B3000DBB20A349A4266D020888842F7D13A4B19
:100B40001F001B68002B4BD0207A002E2CD02900D0
:100B50001DF084FDE279A179009683B23D6840469C
:100B6000A847247A15E0002E04D0002D02D02A23B5
:100B7000E35C337001240CE0012402212A4B1D6840
:100B8000002D2DD0002E04D02300002240460096D8
:100B9000A847200002B080BCB846F0BDA08A2B0058
:100BA000320039000EF0BCFB0400F2E78842E3D0CB
:100BB00008240121E2E79A42F8D09842DCD00324CD
:100BC0000121DBE7F5230120184A194922F05EFDD7
:100BD000207B2B00320039000EF0C4FB0400D8E764
:100BE0000024D6E7FA230120104A124922F04EFDD4
:100BF0002189606833003A0000950EF077FB04000D
:100C0000C7E7608BCBE7002305E00A200133DBB2A6
:100C100084449A42E4D0604640888842F5D16346D5
:100C20009888BCE750590020885900205C64021065
:100C30006C64021088640210F0B5C64600B584B03A
:100C40000AAB804601CB84461E88002A30D1814CF5
:100C5000638A8B4200D1A8E0238B8B4200D1C0E095
:100C6000E3898B4229D0238D8B423AD0A38B8B42D0
:100C700000D1DCE02423E05C0133E35CC0182623D0
:100C8000E35CC018C0B2002812D0246A00222300FE
:100C900004E00132D2B20A3390424DD01D888D4219
:100CA000F7D19A79D979404663460096FFF7D8FE86
:100CB000002004B080BCB846F0BD0378664A2373B8
:100CC000009364230120FF33644922F0DFFC644D6C
:100CD0002B68002BECD0634B267B02AC23800223D5
:100CE00071E00720002EE4D063462A2546461B7893
:100CF000268063550093B723574A5B005A4906384C
:100D000022F0C4FC635D002B7AD0012BD0D1544C6F
:100D10002368002BCCD06A46524B1381092393726F
:100D2000424602A803211DF0E3FB05230021042015
:100D3000246802AAA047BBE7002204E00132D2B235
:100D40000A349042B4D063888B42F7D100216046C8
:100D50001DF0B8FBA0800190A379050000938823C3
:100D60000120FF333C4A414922F090FCA379022B39
:100D700065D0032B50D0012B9AD1394E3368002B0C
:100D800096D0384BE77902AC2380052342462000F9
:100D9000A37003211DF0ACFBA571072322000021E5
:100DA000042035686771A84782E700211DF08AFB9F
:100DB0002B4D06002B68A082002B00D178E7294B31
:100DC00002AC2380032342462000A37003211DF0C0
:100DD0008FFB06232200002104202D686671A8479E
:100DE00066E700211DF06EFB1D4D06002B68608339
:100DF000002B00D15CE71B4B02AC23800423E2E70D
:100E0000174C2368002B00D152E76A46154B13811B
:100E100008239372320084E7114E3368002B00D10F
:100E200046E7104BE77902AC23800723AEE70300C7
:100E30000222002140460096FFF712FE38E7084ED6
:100E40003368002B00D133E7064BE77902AC2380EF
:100E500006239BE7505900205C640210A064021036
:100E6000E45B0020F1040000C0640210DC640210A6
:100E7000F0B5DE4657464E464546E0B5984E8BB037
:100E80000F00150004000591069200213822300061
:100E90009A4602F011FD012304AA337311339B1803
:100EA000984600234246776009AF13804146013BD4
:100EB0003A008C4835813B80B4700DF085FF434685
:100EC00039881888884A0EF065F843463988874A79
:100ED000708118880EF05EF843463988844AF081A4
:100EE00018880EF057F843463988814A30821888AE
:100EF0000EF0A8F9434639887E4A708218880EF0B1
:100F000049F8434639887B4AF08218880EF09AF9EE
:100F100043463988784A308318880EF03BF84346B8
:100F20003988764AB08318880EF034F8744B3085CF
:100F3000994673894A460093E123012071495B0079
:100F400022F0A4FBF3894A460093C42301206E4992
:100F5000FF3322F09BFB338A4A460093E2230120B1
:100F60006A495B0022F092FB738A4A460093C623CB
:100F700001206749FF3322F089FBF38A4A46009338
:100F8000E323012063495B0022F080FBB38B4A46D8
:100F90000093C82301206049FF3322F077FB338B95
:100FA0004A460093E42301205C495B0022F06EFB7B
:100FB000338D5B490093CA234A46FF33012022F058
:100FC00065FB149B3988336243461D888D4264D289
:100FD0005346CB46B1469B00149C53445B00E31838
:100FE0000493504B0793049B9C4200D175E028006A
:100FF0004D4A0DF0CFFF061E4CD0280039884A4AD2
:101000000EF020F939888246484B2800464A0EF0F7
:101010001FF8051E3ED0162304AA99180CF038FAC2
:10102000002837D004ABDB8A022B33D10378417818
:101030009C46534663800023A38063466046E37169
:10104000059A069B2680A1711CF078FEA379207278
:10105000022B34D0032B30D0012B27D124214A4638
:101060004846525C013242540293E3795A46019356
:10107000238801200093812307999B0022F006FB1F
:101080006388002B1DD101353988ADB2A94224D91E
:101090000A34A8E7434639881D882548254B058230
:1010A0004360254B418283600FF096FA0BB0F0BC91
:1010B000BB46B246A946A046F0BD2621CFE7252172
:1010C000CDE71E4900935A4601201D4B22F0DEFA5F
:1010D00001353988ADB2A942DAD843461D88DCE72C
:1010E00050590020121800004B2A00004E2A000020
:1010F000332A0000222A0000322A00004C2A000075
:101100005C640210106502105465021098650210AC
:10111000DC6502102066021064660210A8660210E8
:10112000EC660210306702104D2A0000082900000A
:10113000E8550020C50A0010390C00107C67021029
:1011400006020000014B18607047C046E45B0020B7
:1011500010B5054B054A58631A632C33010018007B
:101160000FF0B0FA10BDC04650590020290A0010F7
:1011700070B5150025221E00114B0C00995C013A38
:101180009A5C8446891826229A5C8918C8B200287D
:1011900014D000211B6A04E00131C9B20A3388422D
:1011A0000CD09A79012AF7D1DA79A242F4D11988C0
:1011B0002A00330060460FF0A9FA70BD1120FCE749
:1011C0005059002010B50400002A03D1074B1B889A
:1011D0008B4201D0002010BD002102981DF072F951
:1011E000034B1880034B1C80F4E7C046F0610020DD
:1011F000EC610020EE61002010B51C006B460E482B
:10120000944600881A89884205D00C48038800203B
:101210008B4208D010BD0A4B61461878130022009B
:101220000EF0A0F8F6E7074B61461888130022007D
:101230000EF076F8EEE7C046F2610020F061002083
:10124000FD610020EC61002030B5154B83B01870B3
:10125000002301AD2B806B469C1D012322005B42C5
:101260002900104823800DF0AFFD218828880E4A00
:101270000DF090FE0D4B21880B4A188028880DF048
:10128000E1FF0B4B18800B482B8803822388438295
:10129000094B4360094B83600FF09EF903B030BDEA
:1012A000FD6100200F180000192A0000F2610020E3
:1012B000F0610020601B0020F9110010C511001022
:1012C00070B582B0080069460E8B3049CC888442E4
:1012D00021D0CC8984422BD0CC8A84422DD0CC8B97
:1012E00084422FD0CC8C844231D0CC8D844233D0F8
:1012F000CC8E844235D0CC8F844237D046240C5BD0
:10130000844238D04E2400250C5BAC46844237D052
:10131000604602B070BD0C68002CDAD00020C0001E
:1013200009188988200000960DF0E0FF8446EFE759
:101330008C68002CD0D00120F1E70C69002CCED0B5
:101340000220ECE78C69002CCCD00320E7E70C6A84
:10135000002CCAD00420E2E78C6A002CC8D00520FB
:10136000DDE70C6B002CC6D00620D8E78C6B002C78
:10137000C4D00720D3E70C6C002CC3D00820CEE7E4
:101380008C6C0920002CC3D0C9E7C046A8260020D9
:10139000F0B587B001AC22001D4B6F4623CB23C2B2
:1013A00003CB03C20023BE1C32003B806946013BD5
:1013B000184833800DF008FD174D184B07222B639A
:1013C0000823AB86164BAB630423AB87154B2B640A
:1013D0004423EA52144B0022AB644C23EA520635F4
:1013E0002288318838880DF0D5FD023406AB28807C
:1013F00008359C42F4D10D483B88038233884382F0
:101400000B4B4360002383600FF0E6F807B0F0BD9C
:1014100048A602100A180000A82600201C27002059
:10142000F8260020FC260020242700200427002086
:10143000C112001010B54024074A83009A181268A0
:10144000C0005440C0222240044C1B191A60044BB7
:10145000C018416010BDC04604C0014004D0014026
:1014600000400140064B8000C3181B68C900920071
:101470000A435A400C231340024A80180360704705
:1014800004C0014004D001408000002904D0054B75
:10149000C018022303607047034BC0180223036087
:1014A000F9E7C04604E0014004F00140D0231B06E8
:1014B0001B6810B514005A4253412F225B429343DC
:1014C0000D4A9B18C20894460722104062468000CD
:1014D00081403C32094892001150604680001B1840
:1014E000002C04D0802292019B18196010BDC022EC
:1014F00092019B181960F9E730410140004001401A
:10150000F0B5D026C646360633680C4D9B00904693
:10151000EA5804000F0000B5104209D13900144305
:101520000D204246EC5000F091F980BCB846F0BD69
:1015300001F032FC33689B00EA58EFE7F85B0020CB
:1015400010B504000D2000F067FAD0231B061B68BD
:1015500002499B005A58A2435A5010BDF85B002024
:101560000123D0228340120693629361084A8300CC
:101570009A1811684022514080320A400549C00043
:101580005B181A60044BC018052343607047C046BF
:1015900004C0014004D00140004001400FB400B538
:1015A000084883B003F0EEFE049B002B07D005A98A
:1015B0001800019103F034FD034803F0E3FE01201D
:1015C00003F046FDB8670210486A0210EFF310807E
:1015D00072B6034A1368002BFCD0BFF35F8F7047CD
:1015E0002C0100D0BFF35F8F0022024B1A6080F302
:1015F000108870472C0100D070B58C461600EFF3B0
:10160000108472B60F490B68002BFCD0BFF35F8FBC
:101610006346DB08C5180722C05C63461A400123F5
:1016200093401A000240034207D118432870BFF3C9
:101630005F8F0A6084F3108870BD61463000FFF749
:10164000ADFFC0462C0100D0F8B5CE4647468C46CB
:1016500080B51C00EFF3108872B61C490B68002B94
:10166000FCD0BFF35F8FA24221D80723994602E046
:101670000132944218D34946012611408E40D308C6
:10168000C718C35C1E42F3D1100033433B70BFF355
:101690005F8F00220D4B1A6088F3108800280EDB44
:1016A000C0BCB946B046F8BD01204042EFE7BFF3E9
:1016B0005F8F00230B6088F310880120404263464F
:1016C000002BEDD00898FFF769FFC0462C0100D031
:1016D00010B584460A00EFF3108472B60B490B680C
:1016E000002BFCD0BFF35F8F0723D00813400122EB
:1016F0009A4063461B5C934362461354BFF35F8F6B
:1017000000230B6084F3108810BDC0462C0100D06C
:10171000044A1078431CDBB2172B00D91023137036
:101720007047C046A208002000B5054B83B00100F9
:10173000009318221F230348FFF786FF03B000BD64
:10174000C8670210801D00200021044B044ABFF32B
:101750005F8F02C39342FAD17047C046000100D0A8
:10176000800100D0084B094A1360094A1360094AF6
:101770001360094A1360094A1360094A1360094A51
:101780001360094A136070478080808000E400E0A5
:1017900004E400E008E400E00CE400E010E400E011
:1017A00014E400E018E400E01CE400E01F2318400B
:1017B0001E3B8340002905D0C021044A49005350F4
:1017C00013607047802201498B50FAE700E100E086
:1017D00001228240034B1B6813405A1E9341D8B22A
:1017E0007047C04600E100E001238340014A1360D6
:1017F0007047C04600E200E070B50D00EFF31086C0
:1018000072B60F4A1368002BFCD0BFF35F8F0D4BED
:1018100010309B6884001B590B4A934203D09D42B1
:1018200001D001F0B9FA074B9B681D51BFF35F8FE0
:10183000BFF35F8F0022024B1A6086F3108870BDE1
:10184000240100D000ED00E0C1010010F0B5DE463B
:1018500057464E464546E0B5824683B08B46170054
:10186000EFF3108872B6604A1368002BFCD0BFF308
:101870005F8F00255D4B5D579946002D00DA9AE099
:101880004A466B005A4C5E19B6000193A3190093A7
:101890009B791370574B9A68534610339B00D1586D
:1018A00099460B1B2F2B32D9534B994200D098E00D
:1018B000019B0236ED18514BAD006353504BA619F6
:1018C000043B9B1B4F4A1B055B0D651913436B8043
:1018D0004D4B0121AB80FF23AB715B46AB60009B9E
:1018E000EF710B4319004A46424B9B689950BFF376
:1018F0005F8FBFF35F8F00223B4B1A6088F3108825
:1019000003B0F0BCBB46B246A946A046F0BD0120DC
:101910000A008243D379B446BB422DD83B4BB51C59
:10192000190013001B1B5B415943090D8C46334BB7
:101930006519A353324B0099043B5B1B1B05314DCA
:101940005B0D2B4304364B80A619131F9B1B1B05F5
:101950005B0D1D4363468B715B468B602C4B8D800A
:10196000CF7113600143BEE75800C01880002018F3
:10197000C679BE4225D902000623D356002BF3DADE
:101980009A46131D9C4623486346009E9571043E6B
:10199000F61A36051B4B760D1E43019B96805A198D
:1019A00053469200A418A3715B46194AA080226096
:1019B000E771A36097E701F0EFF900254B465D570B
:1019C0005EE766469A46131D9C469088043640059D
:1019D0000015A6196044801B00050A4E400D3043D7
:1019E000D2E701F0D9F963E7240100D00B620020AF
:1019F000A408002000ED00E0C101001000A1FFFFDD
:101A0000D408002000E0FFFF01BDFFFFAAAA0000EC
:101A10000148804701BD0000F0B54546DE46574607
:101A20004E46E0B50D0083B0EFF3108872B6604A01
:101A30001368002BFCD0BFF35F8F5E4B5E499A6842
:101A4000030010339F00D45999468C423ED0AC42DB
:101A50004FD05A4EA21B2F2A38D8594B1A689C4691
:101A600013000122824013401F22024001209A46A7
:101A700090406346802283469850BFF35F8FEFF318
:101A800005830193002B36D0994501D001F084F9EC
:101A9000012322009A439068854208D176E04B00EA
:101AA0005B189B00F3189868854236D01A0006210F
:101AB00051560029F3DA854254D05346002B27D0E3
:101AC000C02259463E4B520099501960394B9B68D1
:101AD000DC51BFF35F8FBFF35F8F0022344B1A607E
:101AE00088F3108803B0F0BCBB46B246A946A046B6
:101AF000F0BD0C00EAE7220001339A43906885426A
:101B0000D5D106201056130000280ADA0C0031E067
:101B1000802359462A4AD150D8E706201856002873
:101B200021DB42001118890075188946A96899605F
:101B3000E979D971062169569971002924DBAD88AC
:101B4000F11A6D052D154D44491909051D4D490D15
:101B50002943998013181C4A9B001178F318997136
:101B60001070AAE713000199002914D1FF31917177
:101B70001649918014490A789A71154A9B1B5B415A
:101B80005A43120D0A7098E71049E2E706201056F2
:101B900013000028C5DA0F4A0F49D21A083A50023A
:101BA000400D014399800D4952080A43DA8084E7C9
:101BB000240100D000ED00E0C1010010A4080020C5
:101BC00000E100E000E0FFFF0B62002001BDFFFF2D
:101BD000AAAA0000DE08002000F0FFFF00F8FFFFC7
:101BE000084A83089B009B181A6810B5140003224A
:101BF0001040C000FC3282409443220081400A43DE
:101C00001A6010BD00E400E00123034370B59C4658
:101C1000EFF30581EFF3108572B6214A1368002BAC
:101C2000FCD0BFF35F8F1F4B04001F4AE41A6441CE
:101C30006243120D1D4C8900A66852B27658664563
:101C40001CD00621595691421CD01221595691425E
:101C500022D01E215956914220D02A2159560324C0
:101C6000914210D0124B19781A708171BFF35F8FB7
:101C700000220B4B1A6085F3108870BDA3680D4CD1
:101C80005C50EFE700246100091989005B18FF210F
:101C9000997109499980E5E70124F4E70224F2E704
:101CA000240100D0A4080020AAAA000000ED00E052
:101CB0000B620020C101001001BDFFFF1F2110B504
:101CC000091A0248FFF704FD10BDC0462862002033
:101CD00000B5074B83B0010000930022052305489F
:101CE000FFF7B2FC002801DB1F23181A03B000BD68
:101CF000E46702102862002070B504000E00150091
:101D0000FFF706FD0100200000F006F8A680E58040
:101D1000BFF35F8F70BDC046024BC91889000160D8
:101D20007047C0464000003470B5114C114DAC42B4
:101D30000FD2FF262368002B0CD0FFF7E9FC01002F
:101D40002000FFF7E9FFA680BFF35F8F0834AC42A5
:101D5000F0D370BDFFF7DCFC01002000FFF7DCFFD3
:101D60002671BFF35F8F0834AC42E3D3F1E7C0467E
:101D7000C80F0020D80F002010B50400FFF7C8FCE2
:101D800001002000FFF7C8FFFF232371BFF35F8F1F
:101D900010BDC04610B50400FFF7BAFC01002000DA
:101DA000FFF7BAFFFF23A380BFF35F8F10BDC046CC
:101DB00010B504000120FFF7B7FC034BC0188000EA
:101DC0002060BFF35F8F10BD400000340A4B1968DC
:101DD000EFF3108072B60A68002AFCD0BFF35F8F61
:101DE0001B68BFF35F8F00221A6080F3108840BF2A
:101DF000002000217047C0463C5F0020F0B5DE4661
:101E000057464E464546E0B585B0EFF305830322BD
:101E10001A40B34B91005F58012393409B460292B6
:101E20005A468846AF4B1A60AF4B03935B46AF48A8
:101E300043630823FE5E002E37DABB881BB2002BFB
:101E400000DBA4E0BB79002B00D0E5E00823F95EBD
:101E5000002920DB4B007A695B18DB00D3189D68F2
:101E6000DC686B1C00D104E1A04801004144826A97
:101E70000B69AE1A9B1A9E4215D30123026A02987F
:101E800083401A420FD0994800F0A8FC8C4202DC33
:101E9000CCD18542CAD940BF05B0F0BCBB46B246E2
:101EA000A946A046F0BD0D61EDE77A697300914641
:101EB0009B19DB0099444B469C68DD6800F08EFC62
:101EC0008D42BADC00D1F6E0002D00DADBE04A46B4
:101ED0004B4652691B699246039A934200D1CCE06B
:101EE0004A460821785E52880004514610439847BC
:101EF000009001910099019A0B00134300D1C2E0B8
:101F000013000A00002B00DBD9E020002900801A12
:101F100099414B469860D96000229B5E002B00DA05
:101F20008BE75D007C69EA18D200A21800949468DF
:101F3000D268A2468A4200DD7FE702D1844200D9FE
:101F40007BE70824A4463B81BC44009C00972F00FB
:101F50006546B4463E0006E05E00F218D200A218C4
:101F60009768D268BA468A4207DC00D1B4E0F31819
:101F7000DB00E518E35E002BEEDA66464A46009F7A
:101F800013802E80BB881BB2002B00DA5AE73A6917
:101F9000EFF3108172B61368002BFCD0BFF35F8F94
:101FA0000123BE885B42BB8036B23B69BFF35F8FC3
:101FB00000221A6081F31088002E00DA42E73B000D
:101FC00008333A0099467D6973009B190824115F14
:101FD000DB004846EB18002913DB9C680093A446FD
:101FE000DC6806E0A34240D00023F95E38000029F7
:101FF00006DB4F007F18FF00EF19FB68A342F1DDFD
:10200000009B068000201E5E1980002EDCDA17007F
:10201000BB79002B00D119E70023BB710823F95EBF
:102020004B1C00D137E73D000835AC467C6903E026
:1020300084464B1C00D109E74B005B18DB00E0181D
:102040000A00E15E43881BB2002BF1DA01256D42E4
:10205000EE178560C66008257B5F9342E9D0634632
:1020600019803B8903803A81E3E7BB686345BBD9AC
:10207000C6E7631C00D0F7E605E7534650461B69E8
:102080009847002823D14B461B883A693B81EFF3E0
:10209000108372B611680029FCD0BFF35F8F4946E8
:1020A0007A880A803A697E80BFF35F8F00211160D1
:1020B00083F31088C1E6844200D805E7BDE60B48EB
:1020C00000F08CFB009B019CC018614121E7534646
:1020D0000CCB009201930DE7824500D847E74CE70F
:1020E000E85B00203C700540FD1D001000400540ED
:1020F00070B52D4C2569002D04D00A212B48FFF71F
:102100000BFE70BD2A4E0321294800F045FBE66016
:10211000FFF7FEFA274B0322C018D02322701B06BC
:102120001B6801216370244B8000A3600F23206192
:102130000220638063694942A180198002311986B7
:1021400047311D83585218315A5275325C399952B1
:102150001832013199521832013199521832013135
:102160009952083518329D5202311832995218325C
:102170000131995218320131995218320131995274
:102180001832013199521832013199520B4B0C49D6
:10219000DC6001303562FFF72FFB01210320FFF7E0
:1021A00005FB084B1D60A8E7EC0800203C5F002001
:1021B0000040054040000034FFFF1000E85B0020B5
:1021C000FD1D00103860054000487047EC080020F5
:1021D000F8B5050018200F0001F016FB041E3AD0D8
:1021E0001821380001F02EFB01216061280000F069
:1021F000E5FAE5600600FFF78BFA184B2670C01869
:10220000D0231B061B688000637001235B4223817F
:10221000A380FB18206167816380002F0AD07900BA
:102220006369C919C9000E4AC9181A8018330132E6
:102230008B42FAD10127B7400A4BB20030000A495D
:102240002F62D450FFF7D8FA01213000FFF7AEFA21
:10225000064BED182F602000F8BDC046400000344A
:10226000FFFF0000E85B0020FD1D0010382000008B
:10227000124B70B5040098421ED001230578C66841
:10228000AB400F4A3362B218136001212800FFF7F8
:102290008DFA28000B49FFF7BFFB2900300000F042
:1022A00085FA00212278084B60699200D15001F034
:1022B000EBFA200001F0E8FA70BDC046EC080020FF
:1022C00038300000FD1D0010E85B0020F8B51F004D
:1022D00008AB1B7804001600002B07D100F086FA2B
:1022E00032003B00121A8B41002B51DB2269EFF3C5
:1022F000108C72B61368002BFCD0BFF35F8F0223E3
:10230000E15E256900293ADB4B0060695B18DB0060
:10231000C218C35A6380BFF35F8F00232B608CF316
:102320001088069B9660D7601361079B53615388A2
:1023300001335B045B0C181C002B1ED083B2508051
:10234000080418432569EFF3108672B62B68002B3A
:10235000FCD0BFF35F8FA3881380A1802369BFF3F4
:102360005F8F00221A6086F31088237801329A402A
:102370000849E3685B181A60F8BD0120DEE7BFF387
:102380005F8F00232B608CF3108801204042F3E71D
:102390000020F1E73C20000070B582B0009201936C
:1023A00001000269EFF3108472B61368002BFCD0B1
:1023B000BFF35F8F0223C85E0D6900283FDB4A69C7
:1023C000430016001B18DB00D218F35A4B80BFF3F2
:1023D0005F8F00232B6084F31088069B1361079B9B
:1023E0005361009B019C9360D460538801335B046C
:1023F0005B0C1D1C002B20D0ACB203045580234382
:102400000D69EFF3108C72B62C68002CFCD0BFF372
:102410005F8F8C88148088800A69BFF35F8F0020EB
:1024200010608CF310880A7801309040CA6808491F
:1024300052181060180002B070BD0125DCE7BFF330
:102440005F8F00232B6084F31088013BF2E7C046C6
:102450003C20000010B543890A1493421ADD530052
:102460009B184269DB00D3180469EFF3108C72B635
:102470002268002AFCD0BFF35F8F5A88090494B207
:10248000090C8A4208D00369BFF35F8F00221A60EB
:102490008CF31088002010BD094A22435A80012382
:1024A00002698371BFF35F8F002111608CF3108884
:1024B000027804499340C268012052181360EAE789
:1024C0000080FFFF3C20000040787047F0B5060018
:1024D0000F0006246442E517A4197D4183B08D42A4
:1024E00012D80FD000F082F922002B00121A8B4173
:1024F000002B13DC002B41D03000390000F0B6F97E
:1025000003B0F0BD8442EDD90024002500F06EF93F
:1025100022002B00121A8B41002BEBDD00F066F934
:1025200022002B00121A8B41002B0ADB002301939F
:10253000144B2200009314482B00FFF72DFF0130AD
:10254000DAD02900114A1248536A994204D8956A90
:10255000A542D1D29942CFD10568EFF3108C72B663
:102560002B68002BFCD0BFF35F8F0368BFF35F8F36
:1025700000251D608CF3108820BFE5E7002ABBD042
:10258000CCE7C046CD1D0010EC08002000400540FF
:102590003C5F0020F0B5C64600B582B0040000F0F4
:1025A00025F9FA2206000F002000002300219200E6
:1025B00001F0DAF88019794104000D1E02DA0124D5
:1025C0002E4D644206267642F71736196F41AF4208
:1025D00014D811D000F00AF932003B00121A8B41D6
:1025E000002B15DC002B46D02000290000F03EF91E
:1025F00002B080BCB846F0BDA642EBD90026002749
:1026000000F0F4F832003B00121A8B41002BE9DD98
:1026100000F0ECF832003B00121A8B41002B0ADB71
:1026200000230193164B3200009316483B00FFF73E
:10263000B3FE0130D8D000233900B0469C46124A80
:102640001248536A994204D8966A4645CCD29942B8
:10265000CAD10668EFF3108772B63368002BFCD03E
:10266000BFF35F8F0368BFF35F8F66461E6087F31B
:10267000108820BFE5E7002AB6D0C9E7FFFFFF7F3B
:10268000CD1D0010EC080020004005403C5F0020FC
:10269000F0B5CE46474680B504000D0085B0EFF397
:1026A00005868946002E10D0364900204B6AAB4281
:1026B00006D38A6A5B1B591E8B41A24240411843D4
:1026C00005B0C0BCB946B046F0BD2F4FFB683A78A4
:1026D00098461800039200F081F8039A131D4246B1
:1026E0009B009B5822001B1A9C462B00121A8B4100
:1026F0009E4210DC0DD020BF224A0020536A4B4579
:10270000DED3926A5B1B591E8B41A24240411843A3
:10271000D6E79445EFD900F069F822002B00121A91
:102720008B41002B1BDB00230193184B22000093ED
:1027300038002B00FFF730FE002810DD114B5A6ADD
:102740004A451CD39B6AA34217D301003800FFF708
:1027500081FE0C4A0020536A4B45B1D3D1E7094AA8
:102760000020536A4B45ABD30020926A5B1BA24208
:1027700040415A1E93411843A2E74A45E5D120BF84
:10278000E3E7C04600400540EC080020CD1D0010E6
:10279000004870470040054010B5024A0248FEF765
:1027A0002BFF10BD00680210841D002010B50248E8
:1027B000FEF78EFF10BDC046841D002000B5054BFE
:1027C00083B00093002203230348FEF73DFF03B0CC
:1027D00000BDC04624680210841D00200300416A29
:1027E0000A00986A596A8A42FAD17047034B596ABB
:1027F0000A00986A596A9142FAD170470040054030
:1028000070B505000E00184A536A1900946A536A9D
:102810008B42FAD1200019002C00350024184D41BC
:10282000AB4216D813D0104B2A005B6A9D4203D9E5
:102830000D494B6A9342FCD3934207D10A4A02E006
:10284000516A994202D1916AA142F9D370BDA04266
:10285000E9D9054B5B6A1C005A1CEFD00122012408
:102860006442E5175242E3E700400540064A536AD6
:102870009942FCD807D1044B02E05A6A914202D136
:102880009A6A9042F9D8704700400540F8B50400B4
:1028900006200D0000F06EF9002843D0364B374972
:1028A000E3185A1E934180225B429B0D12049B0544
:1028B0009B18334A1360334A136018000A68904328
:1028C000FBD12D4B304AE31859424B4180215B002C
:1028D00049000620995200F04DF92900C00000F08F
:1028E000C9FB0130C3091ED1402701226262A362E5
:1028F000266BF30722D4E36A244B0620E518002355
:102900002B60266300F036F93900800000F0B2FB3E
:102910007023E26A5A400E3313402B601C4B236332
:102920000323A364F8BD1B4A93421DD900231A4A0E
:102930001A4F6262A362266BF307DCD5184B144A68
:10294000E3181A60656AA36A0620AD01ED1800F06D
:1029500011F9144900F08EFB0100A80200F08AFB77
:102960000021FFF74DFFC6E740069A01800E1718B9
:102970001A000300BAE7C0460080FCBF08C0004050
:1029800000E0004000F00040146100202C10000026
:1029900001030000FEFF0000FFFF0000C0FF3F003A
:1029A000303000004E0E0000F8B5DE464E4645467B
:1029B0005746E0B505008B4618000A99914600F08D
:1029C00059FB0A9B6C001E026419304BA400E418EA
:1029D000636880469E4200D966602F1FFBB29A460C
:1029E000012B2FD9C0238022294FAD009B0179599B
:1029F0001201E3181A6000291BD14B4622685B01C3
:102A00005340E022134080225201A2181360534623
:102A1000012B2FD9802380229B01E31812011A6019
:102A2000434666607B51F0BCBB46B246A946A04611
:102A3000F8BD786900F01EFB013043001B18033B12
:102A4000FDD2DAE75B46012BCCD1C02303229B01E8
:102A5000E3181A60023AA3681A42FCD04A46236877
:102A600052015A40E023134080225201A218084F1D
:102A70001360AD0058460323216841400B401360AA
:102A800001228240A3681A42FCD0C3E700800040C4
:102A90008C1D0020F0B5D6464F4646464400984669
:102AA0002418324BA400E41863688A469146C0B5E6
:102AB000FF2B02D880235B006360061FF6B2012E55
:102AC0002FD9C02380222A4F85009B0179591201FA
:102AD000E3181A6000291BD14B4622685B01534062
:102AE000E022134080225201A2181360012E30D937
:102AF000802380229B01E31812011A6080235B006F
:102B0000636043467B51E0BCBA46B146A846F0BD7F
:102B1000786900F0AFFA013043001B18033BFDD287
:102B2000DAE75346012BCCD1C02303229B01E318E3
:102B30001A60023AA3681A42FCD04A46236852013E
:102B40005A40E023134080225201A218084F13601C
:102B5000850050460323216841400B401360012249
:102B60008240A3681A42FCD0C2E7C0460080004001
:102B70008C1D0020014B8000C05870478C1D002028
:102B8000F0B5C646040000B52348160098460D006F
:102B900000F070FA0100300000F06CFA4346069A2B
:102BA0001B04120313439C4623680600002B22DB00
:102BB0001A4B1B48E218531E9A4180235242120BB3
:102BC0009B011203D218174B1A60174B1A6013009F
:102BD00001688B43FBD12122144B2560E318A660CA
:102BE0001A602268002AFCDA6246E26008221A6053
:102BF00080BCB846F0BD3F2322681340AB42D7D11A
:102C0000A3681B051B0D8342D2D1EE22E368D202DA
:102C100013406345CCD1EBE7001BB7000040FDBF7C
:102C200008C0004000E0004000F000400430000018
:102C30008023024A9B000B43D3627047008005400B
:102C4000002310B50100988A1B8B984710BDC04621
:102C5000162310B5010018885B88984710BDC04640
:102C6000F8B54746CE4680B50F1E18D014239946B6
:102C7000043304000025012698464B461888434635
:102C800021681B88984701C4431E984101350640BE
:102C9000AF42F2D13000C0BCB946B046F8BD012603
:102CA000F8E7C046D022120612680A4B920010B50F
:102CB000D35883F31088FA2200239200002100F0F9
:102CC00053FD02F041FE43425841012340429843E4
:102CD00010BDC0469059002070B5D02405000120D9
:102CE00024062368584002F053FE002813D0FA222D
:102CF000002392002800002100F036FD02F0FAFDCA
:102D000000280BD02268EFF3108172B60020054B2B
:102D10009200D15070BD04204042FBE702204042A7
:102D2000F8E7C0469059002010B5041E01D002F00B
:102D3000BBFD200010BDC0460048704704090020BC
:102D4000F8B507000E001500FFF7F6FF041E0AD0C5
:102D5000436828009847002804D13000B84728006D
:102D6000A3689847F8BD04204042FBE7AA23064A1F
:102D70001B0113608D235B00D3600449044B196071
:102D80005368002BFCDA70470040024000B0FA00A4
:102D9000006002407047C04610B50148FEF7FEFBD8
:102DA0003868021070B5074D074EB54209D20024AD
:102DB000013E761BB608013608CD01349847B4426F
:102DC000FAD170BD586302109463021070B5074DBC
:102DD000074EB54209D20024013E761BB6080136E3
:102DE00008CD01349847B442FAD170BD8C6302100B
:102DF00094630210054B064A06491A60064A074BBF
:102E00001A6010000B689843FBD1704700E0004047
:102E1000BFCDFBFE08C00040FE7F3C0000F000403C
:102E2000044BDB6C002B03D18022034BD2021A60CF
:102E30007047C046000011504C201150044A054B09
:102E40001A60054A1368DB018033FBD17047C04626
:102E5000FFFFFF0100F0004008C000404022034B8C
:102E60009A675A671A67DA667047C04600F00140F1
:102E700010B5FEF769FC10BD70B52849284D294EE4
:102E80006D1AAC102200302C00D930223000920094
:102E900000F018FDBC2D3DD823002A3B224A052B0B
:102EA0001DD9302075196D07A446001BEB0F002DAE
:102EB00003DA611C8C46A1007250C01AE3189B0013
:102EC0004108F318C900C9181A605A6008339942BA
:102ED000FAD1012303421DD0984360440400A300AB
:102EE000F250631C2F2C15D09B00F250A31C2E2CEB
:102EF00010D09B00F250E31C2D2C0BD09B00F25005
:102F0000231D2C2C06D09B00F250631D2B2C01D0CE
:102F10009B00F250054B9E6070BDC0460001001042
:102F2000C001001000000020C101001000ED00E011
:102F3000002310B5294C82B0A367FFF717FF0122C9
:102F4000274B1A60636C012BFCD10322254B1A60BE
:102F5000224A936B012BFCD1013300930121224AB9
:102F600022480433FFF70CFE052301210093204A79
:102F70002048FFF705FE0022022104201E4BFFF728
:102F800089FD0022012105201C4BFFF783FD002253
:102F9000002107201A4BFFF77DFD002200210820A9
:102FA000174BFFF777FD8023DB0000930022002101
:102FB0000920134BFFF7F8FC0022104B00210620DC
:102FC000FFF768FD0420FFF7D5FD0E4900F052F829
:102FD00001000020FFF72CFE02B010BD0080004071
:102FE0003CB0004030B00040002F685900800240E3
:102FF000008C864700C00240001BB7004059730791
:10300000006CDC0240420F0001480421014B1847CC
:1030100010090020612C0010014B9B68184700002C
:1030200010090020124A936F9B0815D29066D16652
:10303000002905D0FFE7FFE7FFE7516F106F7047EA
:1030400004B580210906C2175140002800D0C843AA
:1030500023F02AF9002104BDF0B5146E556E576FA8
:10306000166FFFF7E3FF1466556657671667F0BDE6
:10307000000000D0114A936F9B0813D2106651666E
:10308000002905D0FFE7FFE7FFE7516F106F70479A
:1030900004B5002801D00020C04323F005F9002129
:1030A00004BDC046F0B5146E556E576F166FFFF72E
:1030B000E5FF1466556657671667F0BD000000D03F
:1030C00094464A4A926F9208624601D228E0C0466E
:1030D000F0B5464E346E756E776F366F00F020F89F
:1030E0009446424A14665566576716676246F0BDB5
:1030F00094463E4A926F9208624601D254E0C0461E
:10310000F0B53A4E346E756E776F366F00F04CF84E
:103110009446364A14665566576716676246F0BD90
:10312000002B24DB11D000293EDA00B5C943404210
:1031300000D1013100F038F8C943404200D10131DB
:10314000DB43524200D1013300BD002AEBD10028FD
:1031500001D1002905D00020C90FC90701D1C04302
:10316000410800B523F088F80022002300BD00B517
:1031700000290ADBDB43524200D1013300F014F88E
:10318000C943404200D1013100BDC943404200D192
:103190000131DB43524200D1013300F005F8DB433B
:1031A000524200D1013300BD002923D1002B18D198
:1031B000002A0CD0BC460D4F38667A6600210023E9
:1031C000FFE7FFE7FFE77A6F386F67467047002831
:1031D00001D00748010000B523F04EF8002200237B
:1031E00000BD02000B00002000217047000000D04D
:1031F000FFFFFFFF002B00D0BFE0130C28D1002AF7
:10320000E7D080B4114F39667A66FFE7FFE730B444
:10321000040C7B6F396F1B0423433B667A66FFE720
:10322000FFE7FFE7C04684B27B6F3D6F1B0423437B
:103230003B667A66FFE7FFE7C04600232C042D0CAF
:103240007A6F386F00196941B0BC7047000000D038
:10325000F0B594460025140E01D112020835140F62
:1032600001D112010435940F01D192000235D40F1F
:1032700001D152000135D40B0134254F7C66254C19
:103280003C660E0C93B2FFE7FFE7FFE73C6F664337
:10329000360C7703BE467343DF0B5B04C01AB9419B
:1032A000130C7343DB18C91ACE086643360CB644B8
:1032B00093B273431F0F1B01C01AB941130C734320
:1032C0001F0B1B05C01AB941860D8F023E43664392
:1032D000360C092D24DB520A7243801A7703460A02
:1032E0006643360C16235B1BDE40DF40BF19644685
:1032F0006643821B7046043506330100D940A8405E
:10330000C01900D30131A24206D20023F0BD000053
:10331000000000D0FFFFFFFF121B0130F3D3F1E7E5
:1033200009277F1BFE406446A2B27243801A00D276
:103330000139220C7243130C1204821A99410B00BA
:103340007046043513370100F940A840801900D3B6
:103350000131002B02D1A2420AD2F0BD013000D3CC
:103360000131121BFAD2013BF8D1A24200D2F0BDCA
:10337000013000D30131121BF7E7F0B51C0C00D06F
:1033800080E00CB400251C0A04D11B02160E334346
:10339000120208351C0B04D11B01160F3343120116
:1033A00004359C0B04D19B00960F334392000235E9
:1033B000DC0B02D192185B4101351C009718644167
:1033C0000134464F7C66464C3C660E0CFFE7FFE737
:1033D000FFE7C0463C6F6643360C7703BE4697B2A4
:1033E0007743C01B00D20139C01B00D201399FB204
:1033F0007743C91BC91B170C77437E04FF0B801B47
:10340000B941CE086643360C0C2D33DBB644120BA3
:103410001F053A431B0B97B27743C01B00D20139FB
:103420009FB27743C91B170C77433E043F0C801BA8
:10343000B941860D8F023E43664329277F1BFE401C
:103440000C3D7746AF40BF1930BCA2B2ABB272435D
:103450007343801A9941220C7243130C1204801A90
:10346000994102000B000137001BA941F9D2781ED7
:103470000021F0BD0C277F1BFE4077467F0BAF403D
:10348000FF19E0E700245D1C07D0144F7D66396604
:10349000FFE7FFE7FFE7FFE73C6F95B29EB26543AA
:1034A0006643401BB141150C1E0C65436643360450
:1034B0002F0C3E432D04401BB141994204D202001F
:1034C0000B0020000021F0BD01D19042F7D3801AFB
:1034D000994101349942F2D3F6E70000000000D090
:1034E000FFFFFFFF48404140484018B4134B5B6862
:1034F000019308BD18B4114B1B68019308BD944695
:103500000F4A926F920805D2624618B40B4BDB68E3
:10351000019308BD0A4AF0B5146E556E576F166FC9
:103520006246FFF7F2FF064A14665566576716674C
:10353000F0BD18B4014B9B68019308BD2812002010
:10354000000000D0FFB550404240504059404B4031
:10355000594000E0FFB5154F4C00640D03D0BC424C
:1035600004D10C0314D80020090D09055C00640D7A
:1035700003D0BC4204D11C030AD800221B0D1B053A
:1035800001264B4009D44B4003D58B4200D18242E7
:10359000FFBD9942FCD19042FFBD0B43DB180343B2
:1035A0001343F5D0C9434918FFBD0000FF070000D1
:1035B00000B5FFF7CFFF804100BDC04600B5FFF763
:1035C000C9FF01D9002000BD012000BD00B5FFF7F3
:1035D000B9FF01D9002000BD012000BD00B5FFF7F3
:1035E000B1FF804100BD012040054A00121804D8F7
:1035F0005A00121801D800207047012070470000BF
:103600000021002805D17047C1174840401AFAD060
:10361000C90713B5064B1B6898470CBC441CA24055
:103620001005120B0349091B09051943114310BD6D
:10363000385E00201F04000010B54C00620D80238E
:10364000D218DB00D21A5B057E2A10DD9E3A13DA0F
:10365000CC170903490819435242D1406400013490
:103660001532202A05DAD0400843604310BD0020FF
:1036700010BD0846604310BDC80FC018013810BD0A
:1036800018B4024B5B6A019308BD000028120020A9
:1036900010B50148FDF782FF44680210132370B58E
:1036A0001D78012D19D014DD1D48FFF7D1FA060051
:1036B0001C48FFF7CDFA1C4C80223100200000F09E
:1036C00001F9022D06D01948FFF7BAFA184B186015
:1036D00070BD154C174BA364F5E7174B124C2360D4
:1036E0006360A360E36023616361A361E3612362BC
:1036F0006362A362E36223636363A363E36323649C
:103700006364A364E36423656365A365E36523667B
:103710006366A366E36623676367A367E367D9E726
:103720005344000053460000281200204C33000090
:10373000385E00203D3700109136001007B5604616
:1037400001880A0A0230DF2AFAD1C9B2820804D3FA
:10375000028840880004104300E00068014A50508D
:10376000039007BD2812002051434343C9188C46DB
:10377000110C83B24B4310B4040C614392B280B27B
:10378000504362431C041B0C001910BC5941130424
:10379000120CC018514161447047000010B5014837
:1037A000FDF7FCFE20690210132310B51C781148A8
:1037B000FFF74EFA012C0BD004DD010080220E48E9
:1037C00000F080F80D48FFF73BFA0D4B186010BD74
:1037D000094C01005422200000F074F8220020005F
:1037E000084980320368002B00D101600430904208
:1037F000F8D1E7E7534600003C5E00204C33000060
:10380000385E00209D37001070B504000A4E30006D
:1038100022F092FD200021F0C7FF0500300022F0C9
:1038200023FD002D05D0054B2C199C4201D8280002
:1038300070BD0348FDF7B2FEC80F00200000042051
:103840005C680210F8B507000C000C4E300022F046
:1038500073FD2100380021F041FF0500300022F007
:1038600003FD002D06D07C43054B2C199C4201D84A
:103870002800F8BD0348FDF791FEC046C80F0020A0
:10388000000004205C68021070B50500054C2000A3
:1038900022F052FD280021F091FF200022F0E4FCEC
:1038A00070BDC046C80F002001480421014B1847D5
:1038B00020090020612C0010014B1B6818470000F4
:1038C00020090020014B5B681847000020090020F8
:1038D0007047C046F8B5DE4657464E464546E0B509
:1038E00099460D9B0700884693469B0728D00B9B63
:1038F000002B3CD016000B9C0A9D3619321B013C54
:103900004B464146285DB847002CF7D135000D9B4A
:103910009B070ED55B46EC1A0C9BA34209D91E00EF
:103920002A004B46414620200134B8470135B442B5
:10393000F6D32800F0BCBB46B246A946A046F8BD67
:103940000B9B0C9A934214D213005D460C000B9A09
:103950009E1A76192A004B46013521002020B847CF
:10396000B542F7D10B9BA046002BC4D1E1E715006F
:10397000CDE75E46002BBED15D46DAE7F0B54F4697
:10398000D6464646C0B584B09C460EAB1F78129B07
:103990009146BA460D9C109E119D9B074CD4002D5C
:1039A00041D1B44248D20123129F1F40B8460C9B1C
:1039B0005F1E302303E001343B55A64201D9202C81
:1039C000F9D14346002B00D187E00C9B5F1E3023CA
:1039D000A54204D830E001343B55AC422CD0202C19
:1039E000F9D1129BDB060DD5129B5B0557D4A6427D
:1039F00067D0A54265D00F9B102B53D0022B5BD014
:103A0000202C36D12023129C01930C9B4A46009314
:103A1000039463460295FFF75DFF04B0E0BCBA462D
:103A2000B146A846F0BD0123129A134098460123DF
:103A300013422DD1B442BAD3129BDB061ED5129B82
:103A40005B05D8D4002CD2D10F9B102B60D00F9BDC
:103A5000022B71D0302301240C9A13705346002B93
:103A600011D1129B5B0740D52B260C9A631C16556F
:103A7000C9E72300013430260C9AD654202CC1D03B
:103A80005346002BEDD02D260C9A631C1655BAE731
:103A9000002F34D0013DB44200D288E795E70F9B58
:103AA000102BAFD1129B9B063CD5202CAAD05823BB
:103AB0000C9A13550134A3E7202CA3D02300013422
:103AC00007E0631E012CBFD00F9A102A36D0022ABD
:103AD000D1D162260C9AD65492E7129BDB06CDD543
:103AE000129B5B0500D482E785E7129A2300160734
:103AF00000D488E720260C9A0133165583E70C235F
:103B000013405F1EBB41ED1AB44200D24FE75CE7A1
:103B1000129B9B060ED478230C9A02241370302338
:103B200053709BE7202C00D16CE778230C9A135537
:103B3000013465E75823EFE76033EDE70C9AA61EE2
:103B4000B618129A920602D55822327093E778225C
:103B5000327090E710B5002800D110BD01F0C8FB0D
:103B6000FBE7C04610B5002803D04A680B68110077
:103B7000984710BDF0B54E46DE4657464546E0B57F
:103B800095B083468946924698461E9A1F9B100020
:103B90001900209EFFF727FD002800D0D2E11E98D3
:103BA0001F990122C44B5242FFF702FD002800D0AA
:103BB00001E11E981F990122C04B5242FFF70EFDF2
:103BC000002800D0D6E01E981F990022BC4BFFF7BA
:103BD00005FD002800D0B5E01E981F990022B94BC2
:103BE000FFF7E6FC002800D0ACE01E981F990022E9
:103BF0000023FFF7DDFC002800D0D1E000230B9369
:103C0000229B5B0500D406260024302306E006AA8A
:103C1000013417321355013E202C01D0092EF6D85D
:103C20001E981F99FFF708FDA74BF2009B180CCBBD
:103C3000050008920993FFF7E7FC02000B001E98AD
:103C40001F99FFF752FC089A099BFFF772FC069038
:103C50000791FFF715FD0700FFF7D2FC02000B00EC
:103C600006980799FFF741FC0022984B06900791B0
:103C7000FFF7B4FC002800D1E9E001373800FFF776
:103C8000BFFC02000B0008980999FFF797FC002879
:103C900001D000270135002E00D1B7E0069513E0D2
:103CA000172306AA9B180A21380001341D19FFF7B3
:103CB000E1F93031297038000A21013EFFF7DAF9C5
:103CC000092F00D8E1E00700202CE9D1069D20242F
:103CD0000CAB0693172706ABFF180DE028000A214E
:103CE000FFF7A0F901343031280039550A21FFF7D8
:103CF00099F9051E00D1B7E0202CEFD10323229AB9
:103D00001340012B17D1219B002B14D00B9B002BB0
:103D100000D1E3E0219B013B2193202B0BD93023E1
:103D2000219A06E006A9013417310B55944200D3BD
:103D3000A0E0202CF6D1229B01940393219B0293B7
:103D4000069B21E0229B52460493219B4946039304
:103D500058461E9B1F9C029600930194434600F018
:103D600043F90400200015B0F0BCBB46B246A9469A
:103D7000A046F0BD229B5B070FD40322544B22992F
:103D8000019203912199029100935246434649467C
:103D90005846FFF79FFD0400E4E704224D4BEEE791
:103DA0001E9A1F9B00200021FFF79FFB01231E90FE
:103DB0001F910B9324E70223229A54461A40229B18
:103DC00006929B0700D1ACE02600434D08942F1FBC
:103DD0003200E87843464946013DD8470136BD42A6
:103DE000F6D1089C069B0434002BBBD05746219A81
:103DF000E31B9A42B6D915002200434649462020CB
:103E00000134D847E31BAB42F6D3ABE72800FFF7FA
:103E1000FBFB02000B001E981F99FFF766FB2B4B64
:103E2000002206000F00FFF7C3FB0CAB069300282F
:103E300000D04FE7002230003900244BFFF7CEFBC3
:103E4000002800D046E7012301359D4342E70022C8
:103E5000069807991D4BFFF7ABFB002800D01AE727
:103E6000002F59D1013716E70323229A1340012B63
:103E700000D1A6E0202C00D15DE70B9B002B3AD0AF
:103E80002D23069A1355013455E7069D202C00D1A9
:103E90001DE73023361906E006AA01341732135500
:103EA000202C00D113E7A642F6D12E230CAA013410
:103EB000069293550EE7C046FFFFEFFFFFFFEF7F2F
:103EC00065CDCD4165CDCDC158A802100000E03FC1
:103ED000BC680210B4680210C46802100C23229A55
:103EE000134257D0219B013B2193A34200D916E7EF
:103EF000202C00D11FE7229B5B0704D52B23069AB9
:103F00001355013417E7229B1B0700D413E7202326
:103F1000069A135501340EE7FB0700D4BBE60137C0
:103F2000B9E6219B042B00D84EE755464F46043C8A
:103F3000E4182A004346013539002020D847AC4216
:103F4000F7D141E70227229B55461F409B0726D009
:103F500006975F46234EEC1C2A00B078434649463C
:103F60000135B847013EAC42F6D1069F002F00D183
:103F7000F8E65746219AE31B9A4200D8F2E615006C
:103F800022004346494620200134D847E31BAB4278
:103F9000F6D3E7E6219BA34200D9C0E6CBE6219BFE
:103FA000032BD5D9069754464F46033DED18220002
:103FB0004346013439002020D847A542F7D1069F57
:103FC000C6E7219B002B00D154E70B9B002B85D02B
:103FD000219B013B21939C4200D2A0E6202C00D0E3
:103FE0004EE7A8E6C0680210F0B54546DE465746E3
:103FF0004E46E0B59BB0249C259D8246884693465C
:10400000994622002B0020002900FFF7ECFA002837
:1040100000D0C1E00122200029007C4B5242FFF772
:10402000DDFA002800D0B7E0012220002900784BFB
:104030005242FFF7BDFA002800D0ADE00022002375
:1040400020002900FFF7B4FA002800D0BBE1089453
:104050000995089809998023289ADB001A400F9245
:104060008022289E1201164032000E96289E0F00D4
:104070000A901E4200D0A4E00B00034300D0CBE026
:10408000002A00D012E232000633269302231340A6
:104090000C930223134200D00AE2279B042B00D288
:1040A00015E200270426043B0E9300220023200083
:1040B0002900FFF77DFA002800D0C8E1554B289A67
:1040C000134004930E9B0393269B0293089B099C29
:1040D0000093019441464B465A465046FFF74AFD2D
:1040E00002002020289B0025034059424B415B429F
:1040F0001840531C089341464B464530D047FB17A8
:10410000FC185C40FB0F1F270A93731E0E930AAB2B
:10411000FF1806E020000A21FEF7ACFF0400202D66
:1041200008D00A212000FEF7A5FF0135303179556E
:10413000092CEFD8052306930E9B564605930023C2
:1041400004930A3303930A9B4146029312AB0093F4
:1041500030004B46089A0195FFF710FC0C9B002B92
:1041600028D05F46279BC41BA34223D982461D004B
:104170003A194B46414620200134B047A542F7D8B2
:1041800050465946279C421A01320023944200D3DC
:1041900095E1013018180DE0289B009401950493D7
:1041A000279B0393269B02934B465A464146504613
:1041B000FFF7E0FC1BB0F0BCBB46B246A946A046E8
:1041C000F0BD01432AD10E9B3200002B00D15DE7E8
:1041D0000027269B0026BB4200DD82E1002200234F
:1041E00020002900FFF7E4F9002800D04BE1289BCC
:1041F000084A02961A408023DB0013430493279B4E
:104200000393089B099C00930194CDE7FFFFEF7F88
:10421000FFFFEFFFFFF7FFFF06232693B24B780067
:10422000400DC018FFF7F0F9B04AB14BFFF781F924
:10423000B04AB14BFFF75EF93F03B04B3F0B3B4336
:104240000C900D9100220A981900AD4BFFF74DF923
:10425000AC4AAD4BFFF76DF902000B000C980D99BD
:10426000FFF748F9FFF7E8F90700FFF7CDF9A74A8C
:10427000A74B0A900B91FFF75CF90022A54BFFF7C3
:1042800039F9FFF7D9F9A44A06000A980B99A34B0C
:10429000FFF74FF90A900B913000FFF7B5F9A04AEC
:1042A000A04BFFF746F902000B000A980B99FFF7A5
:1042B0001CF902000B000A900B91FFF73AF90C90E1
:1042C0000D910A980B9902000B00FFF713F90022D9
:1042D000109011910C980D99934BFFF710F9002253
:1042E000924BFFF707F902000B000C980D99FFF7AE
:1042F00006F900228E4BFFF7FDF802000B000C9828
:104300000D99FFF7FCF80A9A0B9B0C900D918021F8
:104310000020C905FFF7E9F802000B000C980D9981
:10432000FFF7E8F802000B0010981199FFF7E7F883
:104330000022724BFFF7DEF87E4B0022F6183305A1
:10434000FFF7F7F802000B000A900B910898099903
:10435000FFF72EF9002808D00A980B990022734B1A
:10436000FFF7CDF80A900B91013F0A990B9A0B00C9
:1043700011003A006332C62A12D802222898042675
:1043800010400E9A0C90002A26D1279B042B05D9A9
:10439000002800D0A1E0279B043B0E93042642E0B6
:1043A0000222289810400E9A0C90002A13D1279BC5
:1043B000052B00D889E0002800D084E0279B052643
:1043C000053B0E9332E080231B069C46AC446346BB
:1043D000089409933DE605260B4300D1F9E60898B9
:1043E0000999554A554BFFF7F1F8002808D008986D
:1043F00009990022524BFFF7DBF8002800D0E8E6CD
:10440000269B002B34D00F9B002B31D0269B013BE9
:104410002693279BB34204D90C9B002B59D002232F
:104420000C9300230E93002F00D13EE60A9A0B9BBB
:1044300008980999FFF763F8002208900991002372
:1044400020002900FFF7B4F8002800D136E6089CC8
:10445000099D289A80203B4B0006134022000493BC
:104460000E9B0393269B02932B180092019331E637
:10447000279BB342D5D90C9B002B2AD000230E9347
:1044800002330C93CFE7289B2E4A8020089C099D7D
:104490001A408023DB00134322000493279B00066D
:1044A00003932B180092019302967DE6052695E66C
:1044B00000230E930233002704260C93F5E54B1ED0
:1044C0001B191B1A65E602230C930526AEE704238D
:1044D000E7E5279B9B1B0E93A5E7022304260C937D
:1044E000A1E7DB1B5E1E79E601FCFFFFFB799F5015
:1044F0001344D33FB3C8608B288AC63F0000F03F07
:104500000000F83F61436F63A787D23F71A3790929
:104510004F930A400000E03F1655B5BBB16B024017
:10452000EF39FAFE422EE63F00002C400000244006
:1045300000001840FF0300002D431CEBE2361A3F39
:1045400080842E41FFF7FFFFF0B55746DE464E460A
:104550004546E0B5A3B01F002C9B92460C93C94A78
:10456000C94B8B460B901A60002900D1BFE1002394
:1045700038789946002800D1C1E1C44B4C460993D4
:10458000C34B0E935B460A9308E0220053460A99F8
:104590000B9DA84701343878002876D001372528AC
:1045A000F3D110239B46083B9946043B9846033BB6
:1045B000002602259C463878791C0300203BDBB29C
:1045C000102B03D8099A9B00D3589F460300303B19
:1045D000092B36D900252A2800D1A7E000230D9306
:1045E0002E283FD00300683BDBB2122B1BD80E9A5B
:1045F0009B00D3589F4663460F001E43DBE70F0026
:104600002E43D8E743460F001E43D4E75B460F0016
:104610001E43D0E74B460F001E43CCE7802378783B
:104620005B001E4301310F00672845D82428ACD910
:104630000300253BDBB2422BA7D896499B00CB5801
:104640009F460025AB005D196D002D1808780F00FE
:104650000300303B303D0131092BF3D900230D938A
:104660002E28BFD13022802052429046C0000643FF
:1046700078780B0080444246092A00D851E12A2864
:1046800000D15EE10F000131ACE70A9BA1469B46D9
:10469000CA4503D801235B425344994653464A46D0
:1046A000594600200B9DA847200023B0F0BCBB4614
:1046B000B246A946A046F0BD0300693BDBB20F2B12
:1046C00000D962E7012199408846734A11408B4620
:1046D000110042460A4200D013E10A2B2FD0072BCB
:1046E00000D052E70C9D01CD002800D134E12123F8
:1046F0001E43B0461F260D9A12ABF618A1469446EB
:104700005946340002E0000920290AD00F2606404D
:1047100032003732092E00D8073A013162540F288F
:10472000F1D863464C468B460D9322E10C9B20CB7F
:10473000002D52DB78780C930F0001314EE70C9B73
:104740000D9904CB90469B46002900D128E14346B1
:1047500018784144002801D100F029FC0D9A9446B4
:104760000A0004E059780133002900D195E19A420A
:10477000F8D163460D934346D31A0F93730500D4C3
:104780006CE10F9B0D9A934200D90F9202231A00FD
:1047900032400C92334200D191E20C930D9BB9460A
:1047A0001E1943461B1BA84622001F000B9D08E054
:1047B000541C53460A99A847385D002800D163E18C
:1047C00022009642F4D145464F4634000C9B002B04
:1047D00000D097E15B460C93DDE602227878164321
:1047E0000F006D420C930131F8E678786C2800D107
:1047F00059E180235B001E43013114E780239B00B5
:1048000078781E4301310EE77878682800D150E1AE
:10481000802301311E4306E7672800D1C2E0472804
:1048200000D134E1452800D134E107210C9B0D9AD9
:1048300007338B4319000496039502920CC90B9819
:10484000009201930C91220053460A99FFF7CCFB8A
:104850000400A0E6462800D1A8E007210C9B0D9A91
:1048600007338B4319000496039502920CC90B98E9
:10487000009201930C91220053460A99FFF77AF9AE
:10488000040088E649450010A85B0020BCA6021081
:1048900000A702104CA702104190000022005346CE
:1048A00025200A990B9DA847013474E60C9B04331C
:1048B0009B46631C9846B60700D4FFE00C9B220081
:1048C00018780A9953460B9EB0476419012D00D8F9
:1048D00049E245460B9EB8460A9F2A0053460135D9
:1048E00039002020B047A542F7D1474672E7DB4B9D
:1048F00038780B9300239946002800D03DE6002429
:10490000C6E66F2855D000D8BCE21023782800D125
:104910009EE09E430A239C4600230F930A339B4646
:104920004DE000218A005218520001331118187806
:1049300030390200303A092AF4D90D911F00591C70
:1049400050E60C9BB87804CB0237D143C9170A4014
:104950000D920C93791C45E61023300098431133D7
:104960001843802380463000DB0018401E4200D1EF
:10497000C0E643460693082305930D9B220004934B
:1049800010230393002302935B4601931AAB009319
:104990000A9953460B98FEF7F1FF0C950400FAE5CF
:1049A0000139D4E680231B011E433EE720231E432A
:1049B00053E708239C4600230F9308339B4680232C
:1049C0003000DB0018401E4200D11AE10D233100F7
:1049D000994380230A009B001A409146194200D057
:1049E000C3E180230A005B001A4090460C9A04320F
:1049F0000F92194200D08FE24B0600D597E10B06CB
:104A000000D4E5E20C9B1B8899464B46002B00D056
:104A100005E210339943002800D100E200239846B4
:104A20000D9B069104935B46039300230595029327
:104A30004346D9E0582808D0622878D102239C4602
:104A400000230F9302339B46B9E720231E43103BFC
:104A50009C4600230F9310339B46B0E702231A00B5
:104A600032400C92334200D105E20C934346B946E2
:104A70000B9E0A9FA8461D1B220053463900013495
:104A8000B047285D0028F7D145464F469EE6802373
:104A90001B011E4320231E43C7E662460D92424679
:104AA0009B1A0F936AE6C0239B00B8781E43F91C3B
:104AB000B9E5C023B8781E43F91CB4E5012D00D830
:104AC0004AE1631E9946A9444B4652462600A14638
:104AD000BA461C001700A8460B9D32003B00013669
:104AE00020200A99A847A642F7D13B0057469A468C
:104AF0004C460C9B320018780A9953460B9D44444F
:104B0000A84767E6A0460F9B9D4200D862E62C1995
:104B10000B9E4546B8460A9FE41A2A0053460135C3
:104B200039002020B047A542F7D1474652E68023FE
:104B30003200DB001A4090461E4200D1F3E0112102
:104B40008E43B4469846802362469B001A409346A3
:104B500062461A4259D180235B001A4091460C9A52
:104B600004320F9262461A4200D0A0E163465B060F
:104B700000D5D4E063461B0600D412E20C9B002251
:104B80009B5ED8171918414089B2DA0F0C92002B9E
:104B900000D187E188461F2612ABBB461495F71853
:104BA00045464E46E046A14606E028000A21FEF7AB
:104BB00061FA0500202E08D00A212800FEF75AFAD3
:104BC00001363031B955092DEFD84C46C446B146AF
:104BD0005F46149D634606930D9B059504930A2337
:104BE00003930C9B02934B4601931AAB2200009354
:104BF0000A9953460B98FEF7C1FE0F9B04000C93D5
:104C0000C9E40C2331009943E3E6082207219146C9
:104C10000C9B07338B4399444A460ACB08000C92FD
:104C2000DA0F9346184300D085E0002399464346A7
:104C3000002B2FD1002200231092119300231F2656
:104C4000994612ABF6185B461495BB46E046370012
:104C50000F934E46A146109C119D05E0D1380010DF
:104C600004000D00202E0CD00A2200232000290071
:104C7000FEF73EFA01363032BA55002DF0D1092C3C
:104C8000EED80F9B109411955F464C46C446B14632
:104C90009B46149D634606930D9B059504930A233A
:104CA00003935B4602934B4601931AAB2200009399
:104CB0000A9953460B98FEF761FE04006BE40F9BC4
:104CC0009D4200D896E18023DB000C930F9B2E19A8
:104CD000F61A43460F930D9BA84699465346BA468B
:104CE0001F000B9D22003B00013420200A99A84799
:104CF000B442F7D10F9B454698464B460D933B0077
:104D000057469A4643461878002800D162E56B1C46
:104D10000F930C9B002B00D1A8E600233DE50C9BD4
:104D20001B78190031E710239E43B4460BE70C9B18
:104D30001B78994669E6DA17129213924A4010924C
:104D4000129813990A005A401192109A119B121A44
:104D50008B411092119371E70C9B220018780A99ED
:104D600053460B9CA047444634E50822072690464C
:104D70000C9B0733B343984442460C921A685B6815
:104D8000149208931300089A134305D110339943E2
:104D900000239846002838D161208B0600D5412099
:104DA00000231F2698465A4612ABF61803001892A5
:104DB0000F9A0A3BB14616951794199744466646D2
:104DC00090469B46149F089D159103E007000D0037
:104DD000202C13D03200002338002900FEF788F978
:104DE0005B46D2B2D318092A01D8130030334A46A1
:104DF00001341355A845E9D1BE42E7D9189BA04616
:104E00009B461599169D179C199F0D9B069104931F
:104E10005B460393002305950293434644E76120D4
:104E20008B0600D541201F2612ABF21803000A3B67
:104E30000C934B464646A146A8461C005D4614917D
:104E4000BB46170002E00400202E0DD029002000F0
:104E5000FEF710F90C9BCB18092901D80B00303351
:104E60000136BB55AC42EED25F464C46AB46149978
:104E70004546B046D4E50F9B9D4200D926E7013355
:104E80000F93F3E5102332009A439446692800D02B
:104E9000A2E080233200DB001A4090461E4200D17F
:104EA00051E64CE64346002B00D093E673E60C9B9C
:104EB0001B68DA0F002B70D0D9175B184B4098464F
:104EC0001F2612ABF618A14614955C464546BB4614
:104ED000E04637000C9206E028000A21FEF7CAF8E7
:104EE0000500202C08D00A212800FEF7C3F8013461
:104EF00030313955092DEFD85F46C446A3464C469C
:104F0000149D0C9A634606930D9B059504930A2302
:104F1000029203935B4667E60C9B1B689846002B46
:104F200003D11033994300282DD161208B0600D581
:104F300041201F2612ABF61803000A3B4A460C9389
:104F4000149143463100A846A1465E461400BB4674
:104F50001D000F0002E00500202C0DD031002800BC
:104F6000FEF788F80C9BCB18092901D80B003033C9
:104F700001343B55B542EED223005F464C464546D0
:104F8000B346994614990D9B069104935B4603938F
:104F90000023059502934B4626E64346002BB1D1EC
:104FA0008EE70C9B1B68D81719184140EDE580234C
:104FB0003200DB001A400F921E420FD00230020076
:104FC00032400F92304219D00023A0460F939AE549
:104FD0000C9B1B68994618E516009BE402231A00F7
:104FE00032400C92334200D08CE5002D00D06DE6AB
:104FF000FFF7F0FB01330F93FFF7D0FB0C93F4E7BF
:1050000000B585B00391012102900093034813007D
:105010004A4202A9FFF798FA05B000BD653B0010AF
:1050200010B5094A0300146884B0002C08D001228E
:1050300000910648524203A9A047012004B010BDC8
:1050400000F0A0F90020F9E7A85B0020553B001014
:1050500000BEFDE7094A1368002B06D0084918185E
:10506000884208D8106018007047064B0449181889
:1050700013608842F6D901235B42F4E7E45500202F
:10508000000004202C62002010B5FFF7E1FFC046AD
:1050900070B5FDF787FE074D074EB54209D20024D3
:1050A000013E761BB608013608CD01349847B4425C
:1050B000FAD170BD946302109C630210030010B516
:1050C000080011001B68984710BDC046F8B5437D25
:1050D00007000D001600002B38D0002A1ADD0B78CF
:1050E0000A2B18D00020012E09D0012421006B5C6E
:1050F00001340A2B1AD0B442F8D1864203DD311AAA
:105100003B6828189847AD19013D2B780D3B5A4252
:1051100053413B75F8BD037D002BE3D102210E48BE
:105120003B689847012EEED00120DEE76B1E5B5CEA
:105130000D2BE0D0884203DA091A3B6828189847FB
:10514000054802213B6898472000D4E70368110016
:1051500028009847DEE7C046A8A80210F0B5C6466A
:105160000B6807000D0000B5802B06D05A1C2A6082
:10517000ED182F7180BCB846F0BD0F4B1C68002C99
:1051800016D00B1D98460D4E02E02469002C0FD05E
:105190002368002BF9D03368002B01D0A342F4D14F
:1051A000200041462A68FFF791FF2469002CEFD1C7
:1051B00001220023DBE7C046A8270020002A0020A8
:1051C000F0B54646D6464F46C0B582B090461C0064
:1051D00006000D00FDF70AFB00232F4A12184B4171
:1051E000002B02DA01222D4B52422D4908008A463B
:1051F00021F08AF881466B1C03D1300020F0AEFE0E
:105200000500002C27D0274F274B1C68002C18D0F6
:105210004346002B21D1254B984602E02469002CFF
:105220000FD02368002BF9D043461B68002B01D018
:105230009C42F3D120002A003100B8472469002C99
:10524000EFD14B46002B23D1280002B0E0BCBA4678
:10525000B146A846F0BD164FD6E7144B984602E07B
:105260002469002CEDD02368002BF9D043461B683D
:10527000002B01D0A342F3D12A0031002000B8470F
:105280006B460A222000DA71D91D093AB847E7E7D0
:10529000504620F0E9FFD7E740420F00FFFFFF7FB5
:1052A000D00F0020CD500010A8270020002A002099
:1052B000BD5000100A4A1368002B05D10CE01A00FB
:1052C0001B691032002B07D08342F8D1002902D18C
:1052D00018691060196170470029FCD01060FAE766
:1052E000A827002010B500F0A7F9012010BDC04686
:1052F000F0B5CE46474680B583B06B460600DD1D4F
:105300002870FDF773FA0023194A12184B41002B3D
:1053100002DA0122174B524217490800894620F051
:10532000F3FF164B80461C68002C14D0144F02E08B
:105330002469002C0FD02368002BF9D03B68002B88
:1053400001D09C42F4D1200001222900FFF7BEFECB
:105350002469002CEFD14346002B05D1300003B067
:10536000C0BCB946B046F0BD484620F07DFFF5E729
:1053700040420F00FFFFFF7FD00F0020A827002032
:10538000002A002070B5040020F0E8FD0123010090
:10539000050001222000FFF713FF084B1C68002CBA
:1053A00006D06368002B05D098472469002CF8D1FB
:1053B000280070BD2469002CF3D1F9E7A82700204C
:1053C000F0B5CE46474680B5A3B004000E00FDF709
:1053D0000DFA0023264A12184B41002B02DA012253
:1053E000244B5242244820F08FFF002322000193D7
:1053F00080463300214801A9FFF702FE204F019BA0
:1054000081463C68002B19D0002C2FD01D4E02E0A5
:105410002469002C0FD02368002BF9D03368002BAF
:1054200001D0A342F4D12000019A02A9FFF74EFE59
:105430002469002CEFD100233C680193002C06D096
:105440006368002B0CD098472469002CF8D14346A0
:10545000002B07D1484623B0C0BCB946B046F0BDCA
:105460002469EBE7044820F0FFFEF3E70194EEE740
:1054700040420F00FFFFFF7FD00F00205D51001062
:10548000A8270020002A00200FB400B583B004A98B
:1054900001C90191FFF794FF03B008BC04B018479D
:1054A000F0B5002915DD0E4B0D271A680D4B0E4C7B
:1054B000D3185D426B41451820215B001E5F0478C4
:1054C000A64207D093691942FCD101301460A8426A
:1054D000F5D1F0BD93691942FCD11760F2E7C046DF
:1054E000186100200080FCBF146100201F4B30B504
:1054F0001B680D1E9C462ADD441E102100201C4BFB
:105500001A689369194214D1013093691942FCD188
:10551000136823548542F4D16346002B07D05023EF
:105520009363516B183B0B401249521813602800CB
:1055300030BD6346002B07D050239363516B183B5B
:105540000B400C49521813600028F1D10BE0002BDE
:1055500009D05022064B1B689A63596B183A0A40CF
:1055600004495B181A6003204042E1E7781D0020DF
:105570001861002034100000064B10B51B68002B8A
:1055800006D00021044A12689163044A10689847C3
:1055900010BDC046781D0020186100207C1D002031
:1055A0000822034B19688B691A42FCD17047C04628
:1055B0001861002070B51A4E1A4B32680400D318D7
:1055C00058424341184D143318002B68002C02D068
:1055D000002B0FD070BD002BFCD00600002194637F
:1055E000FCF7E4F830001149FCF716FA104B2C6078
:1055F0001C60EFE72C6004000D4B19600B49FCF7B1
:10560000FBF801212000FCF7D1F8502233689A639F
:10561000596B183A0A4007495B181A60DAE7C04626
:10562000186100200080FCBF781D00207955001013
:105630007C1D0020341000000D4B10B51B780D4B65
:105640000D4C1B780D4B02211B780D4B0020236065
:10565000FBF7F0FE02210120FBF7ECFEE1212068C0
:105660004902FDF713F901210648FFF723FE10BD9B
:10567000DC770610D877061018610020D477061062
:10568000004003403009002003BDC04610B50400AF
:10569000FDF79CFBA04710BDF0B557464E46DE46D1
:1056A0004546E0B5434F85B03B680090019101331A
:1056B00099463B6040BFD0231B061B680F33180080
:1056C0000393FCF785F8061E65D18023D0241B06C2
:1056D0009846BA46B3462406FDF788F8009E019F17
:1056E000361A8F41002F47DBFDF780F8801979418A
:1056F000414502D301203049404202260D002F4A85
:10570000236D1E4243D1536A9D42F9D8976A87425E
:105710002FD3FDF76BF8009E019F361A8F41002FA3
:105720002ADBFDF763F836184F41474502D30126BF
:10573000214F7642012505E030003900FCF7A8FF33
:10574000002819D12A00236D1A401D42F4D0A36D00
:105750009945C1D15E469246002E26D1184820F0C8
:1057600083FD504605B0F0BCBB46B246A946A046F4
:10577000F0BD9D42CDD1C3E75E465746002E0FD106
:105780003B6801333B6040BF00239A46E6E74B4647
:10579000636540BFBDE700210398FCF707F894E775
:1057A00001210398FCF702F8EAE701210398FBF7CF
:1057B000FDFFD3E748090020FFFFFF7F00400540C1
:1057C000B45B0020F0B5C64600B5040086B00F20DB
:1057D0000D001700FBF7FCFF002180460F20FBF7B0
:1057E000E5FF00230093019301330293D023049536
:1057F00005946E46002400250121022003971B0614
:10580000002C13D01A6D1042FCD05C6540BF1A6D9D
:10581000114203D120BF1A6D1142FBD09A6DA242F2
:1058200009D00025AA00B458EAE79A6D1A6D114212
:10583000FBD140BFE6E70135062DF3D141460F20ED
:10584000FBF7B4FF06B080BCB846F0BD0E4B0F4A64
:1058500010B50400934211D30D4A99181A000D484F
:10586000806884460A481450043013500A4B0B4891
:10587000135062460A48FFF7A5FF10BD01235B42A3
:105880001A000849EBE7C046000804200000042085
:10589000F407000000ED00E08D560010FC0700004A
:1058A00089560010F307000070B5FBF78FFE040067
:1058B0000D480368002B13D02000FBF793FED02384
:1058C0001B061C68094925000F352800FBF794FFCB
:1058D00028000121FBF76AFF0122054B1A5570BD14
:1058E000FCF74AFAE8E7C046B45B00207D040020DC
:1058F000BC5B0020F8B504000D00FCF777FF24180E
:105900004D41002D02DA01240D4D6442FBF75EFE8D
:105910000C4E07003368002B0ED03800FBF762FEF8
:1059200022002B00300020F0E7FC002803D02000EC
:105930002900FFF7B1FEF8BD3000FCF71DFAECE7D7
:10594000FFFFFF7FB45B002070B504000D00FCF783
:105950004DFF22002B0012184B41002B02DA0122CE
:10596000084B5242084820F0C7FC041E07D0074AE3
:1059700013680133136040BF034820F075FC20001A
:1059800070BDC046FFFFFF7FB45B002048090020C8
:10599000014B185C7047C046BC5B0020F0B59823F3
:1059A0004746CE46A14A80B5D758973B1C0089B0E0
:1059B0003C403B4200D19CE0136D9B059B0F00D007
:1059C000CAE0802205A8520001210280838020F0D5
:1059D000A3FCC022964B92001A6511239846954B62
:1059E000954D99467B0500D48DE08022904B934ED7
:1059F00092051A65737F05AC0193B178C846029190
:105A0000F08A0390300000F0E9FC08220021200019
:105A1000FDF752FF022302990398019A21716370E6
:105A2000A270637101210790200020F075FC2C000A
:105A3000FB066AD57D4B9D6D01232B4200D0BCE057
:105A40007E4E0324B946203603E002342036212C52
:105A500034D0002D00D1ADE00122631E9A40130026
:105A60002A4200D081E00123A3402B42EDD0704AAE
:105A7000300093659D4300F0C1FD0028E5D0737FA1
:105A8000B278F18A05AF300001930292039100F0E1
:105A9000A5FC082200213800FDF70EFF0223039920
:105AA0007B70029A019B3A71BB70380007910234F7
:105AB000012120F031FC2036212CCAD14F46002D87
:105AC00000D0AEE0444608253D4221D140233B4270
:105AD00004D080221C43564B12051A65BB0600D524
